{
    "_format": "hh-sol-artifact-1",
    "contractName": "AssetVault",
    "sourceName": "contracts/AssetVault.sol",
    "abi": [
        {
            "inputs": [],
            "stateMutability": "nonpayable",
            "type": "constructor"
        },
        {
            "anonymous": false,
            "inputs": [
                {
                    "indexed": true,
                    "internalType": "address",
                    "name": "borrower",
                    "type": "address"
                },
                {
                    "indexed": true,
                    "internalType": "address",
                    "name": "token",
                    "type": "address"
                },
                {
                    "indexed": false,
                    "internalType": "uint256",
                    "name": "amount",
                    "type": "uint256"
                }
            ],
            "name": "Borrow",
            "type": "event"
        },
        {
            "anonymous": false,
            "inputs": [
                {
                    "indexed": true,
                    "internalType": "address",
                    "name": "lender",
                    "type": "address"
                },
                {
                    "indexed": true,
                    "internalType": "address",
                    "name": "token",
                    "type": "address"
                },
                {
                    "indexed": false,
                    "internalType": "uint256",
                    "name": "amount",
                    "type": "uint256"
                },
                {
                    "indexed": true,
                    "internalType": "address",
                    "name": "source",
                    "type": "address"
                }
            ],
            "name": "Deposit",
            "type": "event"
        },
        {
            "anonymous": false,
            "inputs": [
                {
                    "indexed": true,
                    "internalType": "address",
                    "name": "borrower",
                    "type": "address"
                },
                {
                    "indexed": true,
                    "internalType": "address",
                    "name": "token",
                    "type": "address"
                },
                {
                    "indexed": false,
                    "internalType": "uint256",
                    "name": "amount",
                    "type": "uint256"
                }
            ],
            "name": "Repay",
            "type": "event"
        },
        {
            "anonymous": false,
            "inputs": [
                {
                    "indexed": true,
                    "internalType": "bytes32",
                    "name": "role",
                    "type": "bytes32"
                },
                {
                    "indexed": true,
                    "internalType": "bytes32",
                    "name": "previousAdminRole",
                    "type": "bytes32"
                },
                {
                    "indexed": true,
                    "internalType": "bytes32",
                    "name": "newAdminRole",
                    "type": "bytes32"
                }
            ],
            "name": "RoleAdminChanged",
            "type": "event"
        },
        {
            "anonymous": false,
            "inputs": [
                {
                    "indexed": true,
                    "internalType": "bytes32",
                    "name": "role",
                    "type": "bytes32"
                },
                {
                    "indexed": true,
                    "internalType": "address",
                    "name": "account",
                    "type": "address"
                },
                {
                    "indexed": true,
                    "internalType": "address",
                    "name": "sender",
                    "type": "address"
                }
            ],
            "name": "RoleGranted",
            "type": "event"
        },
        {
            "anonymous": false,
            "inputs": [
                {
                    "indexed": true,
                    "internalType": "bytes32",
                    "name": "role",
                    "type": "bytes32"
                },
                {
                    "indexed": true,
                    "internalType": "address",
                    "name": "account",
                    "type": "address"
                },
                {
                    "indexed": true,
                    "internalType": "address",
                    "name": "sender",
                    "type": "address"
                }
            ],
            "name": "RoleRevoked",
            "type": "event"
        },
        {
            "anonymous": false,
            "inputs": [
                {
                    "indexed": true,
                    "internalType": "address",
                    "name": "lender",
                    "type": "address"
                },
                {
                    "indexed": true,
                    "internalType": "address",
                    "name": "token",
                    "type": "address"
                },
                {
                    "indexed": false,
                    "internalType": "uint256",
                    "name": "amount",
                    "type": "uint256"
                }
            ],
            "name": "Withdraw",
            "type": "event"
        },
        {
            "inputs": [],
            "name": "BORROWER_ROLE",
            "outputs": [
                {
                    "internalType": "bytes32",
                    "name": "",
                    "type": "bytes32"
                }
            ],
            "stateMutability": "view",
            "type": "function"
        },
        {
            "inputs": [],
            "name": "DEFAULT_ADMIN_ROLE",
            "outputs": [
                {
                    "internalType": "bytes32",
                    "name": "",
                    "type": "bytes32"
                }
            ],
            "stateMutability": "view",
            "type": "function"
        },
        {
            "inputs": [
                {
                    "internalType": "uint256",
                    "name": "",
                    "type": "uint256"
                }
            ],
            "name": "allAssets",
            "outputs": [
                {
                    "internalType": "address",
                    "name": "",
                    "type": "address"
                }
            ],
            "stateMutability": "view",
            "type": "function"
        },
        {
            "inputs": [
                {
                    "internalType": "address",
                    "name": "",
                    "type": "address"
                }
            ],
            "name": "assets",
            "outputs": [
                {
                    "internalType": "bool",
                    "name": "exist",
                    "type": "bool"
                },
                {
                    "internalType": "uint256",
                    "name": "reserve",
                    "type": "uint256"
                },
                {
                    "internalType": "uint256",
                    "name": "debt",
                    "type": "uint256"
                }
            ],
            "stateMutability": "view",
            "type": "function"
        },
        {
            "inputs": [
                {
                    "internalType": "address",
                    "name": "token",
                    "type": "address"
                },
                {
                    "internalType": "uint256",
                    "name": "amount",
                    "type": "uint256"
                }
            ],
            "name": "borrow",
            "outputs": [],
            "stateMutability": "nonpayable",
            "type": "function"
        },
        {
            "inputs": [
                {
                    "internalType": "address",
                    "name": "token",
                    "type": "address"
                },
                {
                    "internalType": "uint256",
                    "name": "amount",
                    "type": "uint256"
                }
            ],
            "name": "deposit",
            "outputs": [],
            "stateMutability": "nonpayable",
            "type": "function"
        },
        {
            "inputs": [
                {
                    "internalType": "address",
                    "name": "lender",
                    "type": "address"
                },
                {
                    "internalType": "address",
                    "name": "token",
                    "type": "address"
                },
                {
                    "internalType": "uint256",
                    "name": "amount",
                    "type": "uint256"
                }
            ],
            "name": "depositByAgent",
            "outputs": [],
            "stateMutability": "nonpayable",
            "type": "function"
        },
        {
            "inputs": [],
            "name": "getCountOfAllAssets",
            "outputs": [
                {
                    "internalType": "uint256",
                    "name": "",
                    "type": "uint256"
                }
            ],
            "stateMutability": "view",
            "type": "function"
        },
        {
            "inputs": [
                {
                    "internalType": "address",
                    "name": "asset",
                    "type": "address"
                }
            ],
            "name": "getDebtByAsset",
            "outputs": [
                {
                    "internalType": "uint256",
                    "name": "",
                    "type": "uint256"
                }
            ],
            "stateMutability": "view",
            "type": "function"
        },
        {
            "inputs": [
                {
                    "internalType": "address",
                    "name": "asset",
                    "type": "address"
                }
            ],
            "name": "getReserveByAsset",
            "outputs": [
                {
                    "internalType": "uint256",
                    "name": "",
                    "type": "uint256"
                }
            ],
            "stateMutability": "view",
            "type": "function"
        },
        {
            "inputs": [
                {
                    "internalType": "bytes32",
                    "name": "role",
                    "type": "bytes32"
                }
            ],
            "name": "getRoleAdmin",
            "outputs": [
                {
                    "internalType": "bytes32",
                    "name": "",
                    "type": "bytes32"
                }
            ],
            "stateMutability": "view",
            "type": "function"
        },
        {
            "inputs": [
                {
                    "internalType": "bytes32",
                    "name": "role",
                    "type": "bytes32"
                },
                {
                    "internalType": "address",
                    "name": "account",
                    "type": "address"
                }
            ],
            "name": "grantRole",
            "outputs": [],
            "stateMutability": "nonpayable",
            "type": "function"
        },
        {
            "inputs": [
                {
                    "internalType": "bytes32",
                    "name": "role",
                    "type": "bytes32"
                },
                {
                    "internalType": "address",
                    "name": "account",
                    "type": "address"
                }
            ],
            "name": "hasRole",
            "outputs": [
                {
                    "internalType": "bool",
                    "name": "",
                    "type": "bool"
                }
            ],
            "stateMutability": "view",
            "type": "function"
        },
        {
            "inputs": [
                {
                    "internalType": "address",
                    "name": "asset",
                    "type": "address"
                }
            ],
            "name": "isAssetExist",
            "outputs": [
                {
                    "internalType": "bool",
                    "name": "",
                    "type": "bool"
                }
            ],
            "stateMutability": "view",
            "type": "function"
        },
        {
            "inputs": [
                {
                    "internalType": "address",
                    "name": "",
                    "type": "address"
                },
                {
                    "internalType": "address",
                    "name": "",
                    "type": "address"
                }
            ],
            "name": "lenderBalances",
            "outputs": [
                {
                    "internalType": "uint256",
                    "name": "",
                    "type": "uint256"
                }
            ],
            "stateMutability": "view",
            "type": "function"
        },
        {
            "inputs": [
                {
                    "internalType": "bytes32",
                    "name": "role",
                    "type": "bytes32"
                },
                {
                    "internalType": "address",
                    "name": "account",
                    "type": "address"
                }
            ],
            "name": "renounceRole",
            "outputs": [],
            "stateMutability": "nonpayable",
            "type": "function"
        },
        {
            "inputs": [
                {
                    "internalType": "address",
                    "name": "token",
                    "type": "address"
                },
                {
                    "internalType": "uint256",
                    "name": "amount",
                    "type": "uint256"
                }
            ],
            "name": "repay",
            "outputs": [],
            "stateMutability": "nonpayable",
            "type": "function"
        },
        {
            "inputs": [
                {
                    "internalType": "bytes32",
                    "name": "role",
                    "type": "bytes32"
                },
                {
                    "internalType": "address",
                    "name": "account",
                    "type": "address"
                }
            ],
            "name": "revokeRole",
            "outputs": [],
            "stateMutability": "nonpayable",
            "type": "function"
        },
        {
            "inputs": [
                {
                    "internalType": "address",
                    "name": "doubleDip_",
                    "type": "address"
                }
            ],
            "name": "setDoubleDipAddress",
            "outputs": [],
            "stateMutability": "nonpayable",
            "type": "function"
        },
        {
            "inputs": [
                {
                    "internalType": "bytes4",
                    "name": "interfaceId",
                    "type": "bytes4"
                }
            ],
            "name": "supportsInterface",
            "outputs": [
                {
                    "internalType": "bool",
                    "name": "",
                    "type": "bool"
                }
            ],
            "stateMutability": "view",
            "type": "function"
        },
        {
            "inputs": [
                {
                    "internalType": "address",
                    "name": "lender",
                    "type": "address"
                },
                {
                    "internalType": "address",
                    "name": "token",
                    "type": "address"
                }
            ],
            "name": "updateRewards",
            "outputs": [],
            "stateMutability": "nonpayable",
            "type": "function"
        },
        {
            "inputs": [
                {
                    "internalType": "address",
                    "name": "token",
                    "type": "address"
                },
                {
                    "internalType": "uint256",
                    "name": "amount",
                    "type": "uint256"
                }
            ],
            "name": "withdraw",
            "outputs": [],
            "stateMutability": "nonpayable",
            "type": "function"
        }
    ],
    "bytecode": "0x608060405234801561001057600080fd5b50600160009081556100229033610027565b6100df565b61003182826100b0565b6100ac5760008281526001602081815260408084206001600160a01b0386168552909152909120805460ff1916909117905561006b6100db565b6001600160a01b0316816001600160a01b0316837f2f8788117e7eff1d82e926ec794901d17c78024a50270940304540a733656f0d60405160405180910390a45b5050565b60009182526001602090815260408084206001600160a01b0393909316845291905290205460ff1690565b3390565b61177d80620000ef6000396000f3fe608060405234801561001057600080fd5b50600436106101825760003560e01c806364228ac2116100d8578063c50687791161008c578063f11b818811610066578063f11b818814610301578063f3fef3a314610323578063fd984fd11461033657610182565b8063c5068779146102c8578063cdf98d66146102db578063d547741f146102ee57610182565b8063a217fddf116100bd578063a217fddf1461029a578063bf35eac0146102a2578063c449db08146102b557610182565b806364228ac21461027f57806391d148541461028757610182565b80632f2ff15d1161013a5780634b8a3529116101145780634b8a35291461023957806354ffcd8b1461024c578063578e5c221461025f57610182565b80632f2ff15d1461020057806336568abe1461021357806347e7ef241461022657610182565b80630e7b949e1161016b5780630e7b949e146101c557806322867d78146101da578063248a9ca3146101ed57610182565b806301ffc9a7146101875780630e37d36f146101b0575b600080fd5b61019a6101953660046112cb565b610349565b6040516101a7919061140b565b60405180910390f35b6101c36101be3660046111db565b610376565b005b6101cd610466565b6040516101a7919061142e565b6101c36101e8366004611248565b61048a565b6101cd6101fb366004611291565b6105b1565b6101c361020e3660046112a9565b6105c7565b6101c36102213660046112a9565b6105eb565b6101c3610234366004611248565b61062d565b6101c3610247366004611248565b610674565b6101c361025a36600461120d565b6107bc565b61027261026d366004611291565b6107fa565b6040516101a79190611390565b6101cd610824565b61019a6102953660046112a9565b61082a565b6101cd610855565b61019a6102b03660046111c1565b61085a565b6101cd6102c33660046111db565b610878565b6101cd6102d63660046111c1565b610895565b6101c36102e93660046111c1565b6108b3565b6101c36102fc3660046112a9565b610909565b61031461030f3660046111c1565b610928565b6040516101a793929190611416565b6101c3610331366004611248565b61094e565b6101cd6103443660046111c1565b610a8c565b60006001600160e01b03198216637965db0b60e01b148061036e575061036e82610aab565b90505b919050565b6005546001600160a01b031661038b57610462565b6001600160a01b03811660009081526002602081905260408220908101546001909101546103b991906116c9565b6001600160a01b0380851660009081526004602090815260408083209387168352929052205490915081158015906103f15750600081115b1561045f5760055460405163bb92478160e01b81526001600160a01b039091169063bb9247819061042c9086908690899087906004016113e1565b600060405180830381600087803b15801561044657600080fd5b505af115801561045a573d6000803e3d6000fd5b505050505b50505b5050565b7f2344277e405079ec07749d374ba0b5862a4e45a6a05ac889dbb4a991c6f9354d81565b600260005414156104b65760405162461bcd60e51b81526004016104ad90611635565b60405180910390fd5b60026000557f2344277e405079ec07749d374ba0b5862a4e45a6a05ac889dbb4a991c6f9354d6104ed816104e8610ac4565b610ac8565b6105026001600160a01b038416333085610b2c565b6001600160a01b0383166000908152600260208190526040822001805484929061052d908490611700565b90915550506001600160a01b0383166000908152600260205260408120600101805484929061055d9084906116c9565b90915550506040516001600160a01b0384169033907f05f2eeda0e08e4b437f487c8d7d29b14537d15e3488170dc3de5dbdf8dac46849061059f90869061142e565b60405180910390a35050600160005550565b6000908152600160208190526040909120015490565b6105d0826105b1565b6105dc816104e8610ac4565b6105e68383610b99565b505050565b6105f3610ac4565b6001600160a01b0316816001600160a01b0316146106235760405162461bcd60e51b81526004016104ad9061166c565b6104628282610c21565b600260005414156106505760405162461bcd60e51b81526004016104ad90611635565b600260005561065f3383610376565b61066b33338484610ca6565b50506001600055565b600260005414156106975760405162461bcd60e51b81526004016104ad90611635565b60026000557f2344277e405079ec07749d374ba0b5862a4e45a6a05ac889dbb4a991c6f9354d6106c9816104e8610ac4565b6001600160a01b0383166000908152600260205260409020600101548211156107045760405162461bcd60e51b81526004016104ad9061156a565b6001600160a01b0383166000908152600260205260408120600101805484929061072f908490611700565b90915550506001600160a01b0383166000908152600260208190526040822001805484929061075f9084906116c9565b9091555061077990506001600160a01b0384163384610e17565b826001600160a01b0316336001600160a01b03167f312a5e5e1079f5dda4e95dbbd0b908b291fd5b992ef22073643ab691572c5b528460405161059f919061142e565b600260005414156107df5760405162461bcd60e51b81526004016104ad90611635565b60026000556107f033848484610ca6565b5050600160005550565b6003818154811061080a57600080fd5b6000918252602090912001546001600160a01b0316905081565b60035490565b60009182526001602090815260408084206001600160a01b0393909316845291905290205460ff1690565b600081565b6001600160a01b031660009081526002602052604090205460ff1690565b600460209081526000928352604080842090915290825290205481565b6001600160a01b031660009081526002602052604090206001015490565b6108be60003361082a565b6108da5760405162461bcd60e51b81526004016104ad9061149f565b6005805473ffffffffffffffffffffffffffffffffffffffff19166001600160a01b0392909216919091179055565b610912826105b1565b61091e816104e8610ac4565b6105e68383610c21565b600260208190526000918252604090912080546001820154919092015460ff9092169183565b600260005414156109715760405162461bcd60e51b81526004016104ad90611635565b60026000556109803383610376565b6001600160a01b0382166000908152600260205260409020600101548111156109bb5760405162461bcd60e51b81526004016104ad906114d6565b6001600160a01b038216600090815260026020526040812060010180548392906109e6908490611700565b90915550503360009081526004602090815260408083206001600160a01b038616845290915281208054839290610a1e908490611700565b90915550610a3890506001600160a01b0383163383610e17565b816001600160a01b0316336001600160a01b03167f9b1bfa7fa9ee420a16e124f794c35ac9f90472acc99140eb2f6447c714cad8eb83604051610a7b919061142e565b60405180910390a350506001600055565b6001600160a01b03166000908152600260208190526040909120015490565b6001600160e01b031981166301ffc9a760e01b14919050565b3390565b610ad2828261082a565b61046257610aea816001600160a01b03166014610e36565b610af5836020610e36565b604051602001610b0692919061130f565b60408051601f198184030181529082905262461bcd60e51b82526104ad91600401611437565b61045f846323b872dd60e01b858585604051602401610b4d939291906113a4565b60408051601f198184030181529190526020810180517bffffffffffffffffffffffffffffffffffffffffffffffffffffffff166001600160e01b031990931692909217909152610ffc565b610ba3828261082a565b6104625760008281526001602081815260408084206001600160a01b0386168552909152909120805460ff19169091179055610bdd610ac4565b6001600160a01b0316816001600160a01b0316837f2f8788117e7eff1d82e926ec794901d17c78024a50270940304540a733656f0d60405160405180910390a45050565b610c2b828261082a565b156104625760008281526001602090815260408083206001600160a01b03851684529091529020805460ff19169055610c62610ac4565b6001600160a01b0316816001600160a01b0316837ff6391f5c32d9c69d2a47ea670b442974b53935d1edc7fd64eb21e047a839171b60405160405180910390a45050565b610cbb6001600160a01b038316853084610b2c565b6001600160a01b03808416600090815260046020908152604080832093861683529290529081208054839290610cf29084906116c9565b90915550506001600160a01b03821660009081526002602052604090205460ff16610d8a576001600160a01b0382166000818152600260205260408120805460ff191660019081179091556003805491820181559091527fc2575a0e9e593c00f959f8c92f12db2869c3395a3b0502d05e2516446f71f85b01805473ffffffffffffffffffffffffffffffffffffffff191690911790555b6001600160a01b03821660009081526002602052604081206001018054839290610db59084906116c9565b92505081905550836001600160a01b0316826001600160a01b0316846001600160a01b03167f364bb76a44233df8584c690de6da7810626a5e77192f3ebc942c35bcb1add24f84604051610e09919061142e565b60405180910390a450505050565b6105e68363a9059cbb60e01b8484604051602401610b4d9291906113c8565b60606000610e458360026116e1565b610e509060026116c9565b67ffffffffffffffff811115610e7657634e487b7160e01b600052604160045260246000fd5b6040519080825280601f01601f191660200182016040528015610ea0576020820181803683370190505b509050600360fc1b81600081518110610ec957634e487b7160e01b600052603260045260246000fd5b60200101906001600160f81b031916908160001a905350600f60fb1b81600181518110610f0657634e487b7160e01b600052603260045260246000fd5b60200101906001600160f81b031916908160001a9053506000610f2a8460026116e1565b610f359060016116c9565b90505b6001811115610fd6577f303132333435363738396162636465660000000000000000000000000000000085600f1660108110610f8457634e487b7160e01b600052603260045260246000fd5b1a60f81b828281518110610fa857634e487b7160e01b600052603260045260246000fd5b60200101906001600160f81b031916908160001a90535060049490941c93610fcf81611743565b9050610f38565b508315610ff55760405162461bcd60e51b81526004016104ad9061146a565b9392505050565b6000611051826040518060400160405280602081526020017f5361666545524332303a206c6f772d6c6576656c2063616c6c206661696c6564815250856001600160a01b031661108b9092919063ffffffff16565b8051909150156105e6578080602001905181019061106f9190611271565b6105e65760405162461bcd60e51b81526004016104ad906115d8565b606061109a84846000856110a2565b949350505050565b6060824710156110c45760405162461bcd60e51b81526004016104ad9061150d565b6110cd85611162565b6110e95760405162461bcd60e51b81526004016104ad906115a1565b600080866001600160a01b0316858760405161110591906112f3565b60006040518083038185875af1925050503d8060008114611142576040519150601f19603f3d011682016040523d82523d6000602084013e611147565b606091505b5091509150611157828286611171565b979650505050505050565b6001600160a01b03163b151590565b60608315611180575081610ff5565b8251156111905782518084602001fd5b8160405162461bcd60e51b81526004016104ad9190611437565b80356001600160a01b038116811461037157600080fd5b6000602082840312156111d2578081fd5b610ff5826111aa565b600080604083850312156111ed578081fd5b6111f6836111aa565b9150611204602084016111aa565b90509250929050565b600080600060608486031215611221578081fd5b61122a846111aa565b9250611238602085016111aa565b9150604084013590509250925092565b6000806040838503121561125a578182fd5b611263836111aa565b946020939093013593505050565b600060208284031215611282578081fd5b81518015158114610ff5578182fd5b6000602082840312156112a2578081fd5b5035919050565b600080604083850312156112bb578182fd5b82359150611204602084016111aa565b6000602082840312156112dc578081fd5b81356001600160e01b031981168114610ff5578182fd5b60008251611305818460208701611717565b9190910192915050565b60007f416363657373436f6e74726f6c3a206163636f756e742000000000000000000082528351611347816017850160208801611717565b7f206973206d697373696e6720726f6c65200000000000000000000000000000006017918401918201528351611384816028840160208801611717565b01602801949350505050565b6001600160a01b0391909116815260200190565b6001600160a01b039384168152919092166020820152604081019190915260600190565b6001600160a01b03929092168252602082015260400190565b6001600160a01b039485168152602081019390935292166040820152606081019190915260800190565b901515815260200190565b92151583526020830191909152604082015260600190565b90815260200190565b6000602082528251806020840152611456816040850160208701611717565b601f01601f19169190910160400192915050565b6020808252818101527f537472696e67733a20686578206c656e67746820696e73756666696369656e74604082015260600190565b60208082526015908201527f41737365745661756c743a204e6f742061646d696e0000000000000000000000604082015260600190565b6020808252601e908201527f41737365745661756c743a204e6f7420656e6f75676820726573657276650000604082015260600190565b60208082526026908201527f416464726573733a20696e73756666696369656e742062616c616e636520666f60408201527f722063616c6c0000000000000000000000000000000000000000000000000000606082015260800190565b6020808252601f908201527f41737365745661756c743a204e6f7420656e6f75676820726573657276657300604082015260600190565b6020808252601d908201527f416464726573733a2063616c6c20746f206e6f6e2d636f6e7472616374000000604082015260600190565b6020808252602a908201527f5361666545524332303a204552433230206f7065726174696f6e20646964206e60408201527f6f74207375636365656400000000000000000000000000000000000000000000606082015260800190565b6020808252601f908201527f5265656e7472616e637947756172643a207265656e7472616e742063616c6c00604082015260600190565b6020808252602f908201527f416363657373436f6e74726f6c3a2063616e206f6e6c792072656e6f756e636560408201527f20726f6c657320666f722073656c660000000000000000000000000000000000606082015260800190565b600082198211156116dc576116dc61175a565b500190565b60008160001904831182151516156116fb576116fb61175a565b500290565b6000828210156117125761171261175a565b500390565b60005b8381101561173257818101518382015260200161171a565b8381111561045f5750506000910152565b6000816117525761175261175a565b506000190190565b634e487b7160e01b600052601160045260246000fdfea164736f6c6343000801000a",
    "linkReferences": {},
    "deployedLinkReferences": {}
}