{
    "_format": "hh-sol-artifact-1",
    "contractName": "SushiswapLPMigration",
    "sourceName": "contracts/SushiswapLPMigration.sol",
    "abi": [
        {
            "inputs": [
                {
                    "internalType": "address",
                    "name": "factory_",
                    "type": "address"
                },
                {
                    "internalType": "address",
                    "name": "router_",
                    "type": "address"
                },
                {
                    "internalType": "address",
                    "name": "assetVault_",
                    "type": "address"
                },
                {
                    "internalType": "address",
                    "name": "policy_",
                    "type": "address"
                }
            ],
            "stateMutability": "nonpayable",
            "type": "constructor"
        },
        {
            "anonymous": false,
            "inputs": [
                {
                    "indexed": true,
                    "internalType": "address",
                    "name": "investor",
                    "type": "address"
                },
                {
                    "indexed": true,
                    "internalType": "address",
                    "name": "capital",
                    "type": "address"
                },
                {
                    "indexed": true,
                    "internalType": "address",
                    "name": "asset",
                    "type": "address"
                },
                {
                    "indexed": false,
                    "internalType": "uint256",
                    "name": "bundleID",
                    "type": "uint256"
                }
            ],
            "name": "BundleCreated",
            "type": "event"
        },
        {
            "anonymous": false,
            "inputs": [
                {
                    "indexed": true,
                    "internalType": "address",
                    "name": "investor",
                    "type": "address"
                },
                {
                    "indexed": true,
                    "internalType": "address",
                    "name": "capital",
                    "type": "address"
                },
                {
                    "indexed": true,
                    "internalType": "address",
                    "name": "asset",
                    "type": "address"
                },
                {
                    "indexed": false,
                    "internalType": "uint256",
                    "name": "bundleID",
                    "type": "uint256"
                },
                {
                    "indexed": false,
                    "internalType": "uint256",
                    "name": "commission",
                    "type": "uint256"
                }
            ],
            "name": "BundleRemoved",
            "type": "event"
        },
        {
            "anonymous": false,
            "inputs": [
                {
                    "indexed": true,
                    "internalType": "address",
                    "name": "lpHolder",
                    "type": "address"
                },
                {
                    "indexed": true,
                    "internalType": "address",
                    "name": "lpToken",
                    "type": "address"
                },
                {
                    "indexed": false,
                    "internalType": "uint256",
                    "name": "lpTokenAmount",
                    "type": "uint256"
                }
            ],
            "name": "LPTokensImported",
            "type": "event"
        },
        {
            "anonymous": false,
            "inputs": [
                {
                    "indexed": true,
                    "internalType": "address",
                    "name": "lpHolder",
                    "type": "address"
                },
                {
                    "indexed": true,
                    "internalType": "address",
                    "name": "capital",
                    "type": "address"
                },
                {
                    "indexed": true,
                    "internalType": "address",
                    "name": "asset",
                    "type": "address"
                },
                {
                    "indexed": false,
                    "internalType": "uint256",
                    "name": "lpTokenAmount",
                    "type": "uint256"
                },
                {
                    "indexed": false,
                    "internalType": "uint256",
                    "name": "returnedCapitalAmount",
                    "type": "uint256"
                },
                {
                    "indexed": false,
                    "internalType": "uint256",
                    "name": "returnedAssetAmount",
                    "type": "uint256"
                }
            ],
            "name": "LPTokensMigrated",
            "type": "event"
        },
        {
            "inputs": [
                {
                    "internalType": "address",
                    "name": "capital",
                    "type": "address"
                },
                {
                    "internalType": "address",
                    "name": "asset",
                    "type": "address"
                },
                {
                    "internalType": "address",
                    "name": "investor",
                    "type": "address"
                },
                {
                    "internalType": "uint256",
                    "name": "index",
                    "type": "uint256"
                }
            ],
            "name": "getActiveBundleIDByIndex",
            "outputs": [
                {
                    "internalType": "uint256",
                    "name": "",
                    "type": "uint256"
                }
            ],
            "stateMutability": "view",
            "type": "function"
        },
        {
            "inputs": [
                {
                    "internalType": "address",
                    "name": "capital",
                    "type": "address"
                },
                {
                    "internalType": "address",
                    "name": "asset",
                    "type": "address"
                },
                {
                    "internalType": "address",
                    "name": "investor",
                    "type": "address"
                },
                {
                    "internalType": "uint256",
                    "name": "bundleID",
                    "type": "uint256"
                }
            ],
            "name": "getBundleInfo",
            "outputs": [
                {
                    "components": [
                        {
                            "internalType": "uint256",
                            "name": "capitalAmount",
                            "type": "uint256"
                        },
                        {
                            "internalType": "uint256",
                            "name": "assetAmount",
                            "type": "uint256"
                        },
                        {
                            "internalType": "uint256",
                            "name": "lpTokenAmount",
                            "type": "uint256"
                        }
                    ],
                    "internalType": "struct LpBundles.Bundle",
                    "name": "",
                    "type": "tuple"
                }
            ],
            "stateMutability": "view",
            "type": "function"
        },
        {
            "inputs": [
                {
                    "internalType": "address",
                    "name": "capital",
                    "type": "address"
                },
                {
                    "internalType": "address",
                    "name": "asset",
                    "type": "address"
                },
                {
                    "internalType": "address",
                    "name": "investor",
                    "type": "address"
                }
            ],
            "name": "getCountOfActiveBundleIDs",
            "outputs": [
                {
                    "internalType": "uint256",
                    "name": "",
                    "type": "uint256"
                }
            ],
            "stateMutability": "view",
            "type": "function"
        },
        {
            "inputs": [
                {
                    "internalType": "address",
                    "name": "lpToken",
                    "type": "address"
                },
                {
                    "internalType": "uint256",
                    "name": "lpAmount",
                    "type": "uint256"
                }
            ],
            "name": "importLPTokens",
            "outputs": [],
            "stateMutability": "nonpayable",
            "type": "function"
        },
        {
            "inputs": [
                {
                    "internalType": "address",
                    "name": "",
                    "type": "address"
                },
                {
                    "internalType": "address",
                    "name": "",
                    "type": "address"
                },
                {
                    "internalType": "address",
                    "name": "",
                    "type": "address"
                }
            ],
            "name": "lpBundles",
            "outputs": [
                {
                    "internalType": "uint256",
                    "name": "nextBundleID",
                    "type": "uint256"
                }
            ],
            "stateMutability": "view",
            "type": "function"
        },
        {
            "inputs": [
                {
                    "internalType": "address",
                    "name": "capital",
                    "type": "address"
                },
                {
                    "internalType": "address",
                    "name": "asset",
                    "type": "address"
                },
                {
                    "internalType": "uint256",
                    "name": "bundleID",
                    "type": "uint256"
                }
            ],
            "name": "migrateLPTokens",
            "outputs": [],
            "stateMutability": "nonpayable",
            "type": "function"
        },
        {
            "inputs": [
                {
                    "internalType": "address",
                    "name": "capital",
                    "type": "address"
                }
            ],
            "name": "withdrawFees",
            "outputs": [],
            "stateMutability": "nonpayable",
            "type": "function"
        }
    ],
    "bytecode": "0x60c06040523480156200001157600080fd5b5060405162003483380380620034838339810160408190526200003491620000a1565b600080546001600160a01b039384166001600160a01b031991821617909155600180549290931691161781556001600160601b0319606093841b81166080529190921b1660a052600355620000fd565b80516001600160a01b03811681146200009c57600080fd5b919050565b60008060008060808587031215620000b7578384fd5b620000c28562000084565b9350620000d26020860162000084565b9250620000e26040860162000084565b9150620000f26060860162000084565b905092959194509250565b60805160601c60a05160601c6133146200016f600039600081816105af0152818161063101528181611b1301528181611c2901528181611c8801526125ec0152600081816104dc0152818161191701528181611ae301528181611e0401528181611f5e015261236c01526133146000f3fe608060405234801561001057600080fd5b506004361061007d5760003560e01c80637e16dc221161005b5780637e16dc22146100d35780639fd96dd7146100e6578063c777aa54146100f9578063f00befd51461010c5761007d565b8063164e68de1461008257806370f23c1e1461009757806375d2f73f146100c0575b600080fd5b610095610090366004612a47565b61012c565b005b6100aa6100a5366004612a7f565b610395565b6040516100b791906130db565b60405180910390f35b6100aa6100ce366004612ac9565b6103d0565b6100956100e1366004612b19565b61043b565b6100956100f4366004612b59565b610b86565b6100aa610107366004612a7f565b611091565b61011f61011a366004612ac9565b6110b4565b6040516100b791906130ba565b600160009054906101000a90046001600160a01b03166001600160a01b0316636611f5286040518163ffffffff1660e01b815260040160206040518083038186803b15801561017a57600080fd5b505afa15801561018e573d6000803e3d6000fd5b505050506040513d601f19601f820116820180604052508101906101b29190612a63565b6001600160a01b0316336001600160a01b0316146101eb5760405162461bcd60e51b81526004016101e290612d74565b60405180910390fd5b6001546040516363b8284960e11b81526001600160a01b039091169063c77050929061021b908490600401612c5f565b60206040518083038186803b15801561023357600080fd5b505afa158015610247573d6000803e3d6000fd5b505050506040513d601f19601f8201168201806040525081019061026b9190612b84565b6102875760405162461bcd60e51b81526004016101e290612de2565b60015460408051630cc23ea560e31b81529051610392926001600160a01b031691636611f528916004808301926020929190829003018186803b1580156102cd57600080fd5b505afa1580156102e1573d6000803e3d6000fd5b505050506040513d601f19601f820116820180604052508101906103059190612a63565b6040516370a0823160e01b81526001600160a01b038416906370a0823190610331903090600401612c5f565b60206040518083038186803b15801561034957600080fd5b505afa15801561035d573d6000803e3d6000fd5b505050506040513d601f19601f820116820180604052508101906103819190612be7565b6001600160a01b0384169190611121565b50565b6001600160a01b03808216600090815260026020908152604080832087851684528252808320938616835292905220600101545b9392505050565b6001600160a01b0380831660009081526002602090815260408083208885168452825280832093871683529290529081206001810180548490811061042557634e487b7160e01b600052603260045260246000fd5b9060005260206000200154915050949350505050565b6002600354141561045e5760405162461bcd60e51b81526004016101e290613083565b60026003819055336000908152602082815260408083206001600160a01b0388811685529083528184209087168452825280832085845280850190925290912091820154909190806104c25760405162461bcd60e51b81526004016101e290612ead565b60405163e6a4390560e01b81526000906001600160a01b037f0000000000000000000000000000000000000000000000000000000000000000169063e6a4390590610513908a908a90600401612c73565b60206040518083038186803b15801561052b57600080fd5b505afa15801561053f573d6000803e3d6000fd5b505050506040513d601f19601f820116820180604052508101906105639190612a63565b90506001600160a01b03811661058b5760405162461bcd60e51b81526004016101e290612f50565b60405163095ea7b360e01b81526001600160a01b0382169063095ea7b3906105d9907f0000000000000000000000000000000000000000000000000000000000000000908690600401612cf1565b602060405180830381600087803b1580156105f357600080fd5b505af1158015610607573d6000803e3d6000fd5b505050506040513d601f19601f8201168201806040525081019061062b9190612b84565b506000807f00000000000000000000000000000000000000000000000000000000000000006001600160a01b031663baa2abde8a8a8760008030426040518863ffffffff1660e01b81526004016106889796959493929190612cb1565b6040805180830381600087803b1580156106a157600080fd5b505af11580156106b5573d6000803e3d6000fd5b505050506040513d601f19601f820116820180604052508101906106d99190612bff565b91509150876001600160a01b0316896001600160a01b0316336001600160a01b03167f1f809c7dc2bb4bf524b6d09d9274533de3a846f9f031d0499d519f2c992a899187868660405161072e93929190613111565b60405180910390a460006107588a8a886001015489600001546107519190613276565b86866111a9565b90506107648184613295565b60005460405163095ea7b360e01b81529194506001600160a01b03808c169263095ea7b3926107999216908690600401612cf1565b602060405180830381600087803b1580156107b357600080fd5b505af11580156107c7573d6000803e3d6000fd5b505050506040513d601f19601f820116820180604052508101906107eb9190612b84565b506000546040516354ffcd8b60e01b81526001600160a01b03909116906354ffcd8b906108209033908d908790600401612c8d565b600060405180830381600087803b15801561083a57600080fd5b505af115801561084e573d6000803e3d6000fd5b5050505061085c8789611734565b886001600160a01b03168a6001600160a01b0316336001600160a01b03167f798d9733b97285407fda6c76d95fcf7c835bc88b9600933330a931925a6062d28b856040516108ab929190613103565b60405180910390a482156108cd576108cd6001600160a01b038b163385611121565b600154604080516334140c5760e21b815290516000926001600160a01b03169163d050315c916004808301926020929190829003018186803b15801561091257600080fd5b505afa158015610926573d6000803e3d6000fd5b505050506040513d601f19601f8201168201806040525081019061094a9190612a63565b6001600160a01b031614610b755760006109648b83611876565b9050600160009054906101000a90046001600160a01b03166001600160a01b031663586a9c4e6040518163ffffffff1660e01b815260040160206040518083038186803b1580156109b457600080fd5b505afa1580156109c8573d6000803e3d6000fd5b505050506040513d601f19601f820116820180604052508101906109ec9190612a63565b6001600160a01b031663313ce5676040518163ffffffff1660e01b815260040160206040518083038186803b158015610a2457600080fd5b505afa158015610a38573d6000803e3d6000fd5b505050506040513d601f19601f82011682018060405250810190610a5c9190612c22565b610a6790600a6131a5565b610a80826ec097ce7bc90715b34b9f1000000000613276565b610a8a919061313f565b9050600160009054906101000a90046001600160a01b03166001600160a01b031663d050315c6040518163ffffffff1660e01b815260040160206040518083038186803b158015610ada57600080fd5b505afa158015610aee573d6000803e3d6000fd5b505050506040513d601f19601f82011682018060405250810190610b129190612a63565b6001600160a01b0316634f10fc4082338d6040518463ffffffff1660e01b8152600401610b41939291906130e4565b600060405180830381600087803b158015610b5b57600080fd5b505af1158015610b6f573d6000803e3d6000fd5b50505050505b505060016003555050505050505050565b60026003541415610ba95760405162461bcd60e51b81526004016101e290613083565b60026003556040516323b872dd60e01b81526001600160a01b038316906323b872dd90610bde90339030908690600401612c8d565b602060405180830381600087803b158015610bf857600080fd5b505af1158015610c0c573d6000803e3d6000fd5b505050506040513d601f19601f82011682018060405250810190610c309190612b84565b506000826001600160a01b0316630dfe16816040518163ffffffff1660e01b815260040160206040518083038186803b158015610c6c57600080fd5b505afa158015610c80573d6000803e3d6000fd5b505050506040513d601f19601f82011682018060405250810190610ca49190612a63565b90506000836001600160a01b031663d21220a76040518163ffffffff1660e01b815260040160206040518083038186803b158015610ce157600080fd5b505afa158015610cf5573d6000803e3d6000fd5b505050506040513d601f19601f82011682018060405250810190610d199190612a63565b6001546040516363b8284960e11b81529192506001600160a01b03169063c770509290610d4a908590600401612c5f565b60206040518083038186803b158015610d6257600080fd5b505afa158015610d76573d6000803e3d6000fd5b505050506040513d601f19601f82011682018060405250810190610d9a9190612b84565b80610e2057506001546040516363b8284960e11b81526001600160a01b039091169063c770509290610dd0908490600401612c5f565b60206040518083038186803b158015610de857600080fd5b505afa158015610dfc573d6000803e3d6000fd5b505050506040513d601f19601f82011682018060405250810190610e209190612b84565b610e3c5760405162461bcd60e51b81526004016101e290612f85565b836001600160a01b0316336001600160a01b03167f0f35fd9e34d0b73a679e7a225b3df62da27b258182f1c3347aa85df44daa852d85604051610e7f91906130db565b60405180910390a36001546040516363b8284960e11b81526001600160a01b039091169063c770509290610eb7908590600401612c5f565b60206040518083038186803b158015610ecf57600080fd5b505afa158015610ee3573d6000803e3d6000fd5b505050506040513d601f19601f82011682018060405250810190610f079190612b84565b610ff257836001600160a01b031663d21220a76040518163ffffffff1660e01b815260040160206040518083038186803b158015610f4457600080fd5b505afa158015610f58573d6000803e3d6000fd5b505050506040513d601f19601f82011682018060405250810190610f7c9190612a63565b9150836001600160a01b0316630dfe16816040518163ffffffff1660e01b815260040160206040518083038186803b158015610fb757600080fd5b505afa158015610fcb573d6000803e3d6000fd5b505050506040513d601f19601f82011682018060405250810190610fef9190612a63565b90505b600080611000838587611d79565b3360008181526002602090815260408083206001600160a01b038b8116808652918452828520908b1680865293529281902080549151969850949650939490939192917f9cef84480b7332980f8b91cae1c15d8a78e1c53aec748aaf91bc7db67c37f4199161106f91906130db565b60405180910390a4611083818385896121b2565b505060016003555050505050565b600260209081526000938452604080852082529284528284209052825290205481565b6110bc612a08565b506001600160a01b03918216600090815260026020818152604080842097861684529681528683209590941682529383528481209181529083018252839020835160608101855281548152600182015492810192909252909101549181019190915290565b6111a48363a9059cbb60e01b8484604051602401611140929190612cf1565b60408051601f198184030181529190526020810180517bffffffffffffffffffffffffffffffffffffffffffffffffffffffff167fffffffff0000000000000000000000000000000000000000000000000000000090931692909217909152612268565b505050565b600080600160009054906101000a90046001600160a01b03166001600160a01b03166384e5eed06040518163ffffffff1660e01b815260040160206040518083038186803b1580156111fa57600080fd5b505afa15801561120e573d6000803e3d6000fd5b505050506040513d601f19601f820116820180604052508101906112329190612be7565b1161123f5750600061172b565b8361124a8385613276565b116112575750600061172b565b600061153c6112668486613276565b60015460408051634aec5ab560e11b8152905189926001600160a01b0316916395d8b56a916004808301926020929190829003018186803b1580156112aa57600080fd5b505afa1580156112be573d6000803e3d6000fd5b505050506040513d601f19601f820116820180604052508101906112e29190612be7565b600160009054906101000a90046001600160a01b03166001600160a01b03166384e5eed06040518163ffffffff1660e01b815260040160206040518083038186803b15801561133057600080fd5b505afa158015611344573d6000803e3d6000fd5b505050506040513d601f19601f820116820180604052508101906113689190612be7565b6113729190613276565b61137c9190613276565b611386919061313f565b600160009054906101000a90046001600160a01b03166001600160a01b03166395d8b56a6040518163ffffffff1660e01b815260040160206040518083038186803b1580156113d457600080fd5b505afa1580156113e8573d6000803e3d6000fd5b505050506040513d601f19601f8201168201806040525081019061140c9190612be7565b600160009054906101000a90046001600160a01b03166001600160a01b03166384e5eed06040518163ffffffff1660e01b815260040160206040518083038186803b15801561145a57600080fd5b505afa15801561146e573d6000803e3d6000fd5b505050506040513d601f19601f820116820180604052508101906114929190612be7565b61149c9190613276565b60015460408051634aec5ab560e11b815290516002926001600160a01b0316916395d8b56a916004808301926020929190829003018186803b1580156114e157600080fd5b505afa1580156114f5573d6000803e3d6000fd5b505050506040513d601f19601f820116820180604052508101906115199190612be7565b61152391906131a5565b61152d9190613295565b6115379190613127565b6122f7565b600160009054906101000a90046001600160a01b03166001600160a01b03166395d8b56a6040518163ffffffff1660e01b815260040160206040518083038186803b15801561158a57600080fd5b505afa15801561159e573d6000803e3d6000fd5b505050506040513d601f19601f820116820180604052508101906115c29190612be7565b6115cc9190613295565b90506000600160009054906101000a90046001600160a01b03166001600160a01b03166395d8b56a6040518163ffffffff1660e01b815260040160206040518083038186803b15801561161e57600080fd5b505afa158015611632573d6000803e3d6000fd5b505050506040513d601f19601f820116820180604052508101906116569190612be7565b6116608387613276565b61166a919061313f565b9050611710600160009054906101000a90046001600160a01b03166001600160a01b03166395d8b56a6040518163ffffffff1660e01b815260040160206040518083038186803b1580156116bd57600080fd5b505afa1580156116d1573d6000803e3d6000fd5b505050506040513d601f19601f820116820180604052508101906116f59190612be7565b6116ff8487613276565b611709919061313f565b888a612367565b61171a9082613127565b9050848111156117275750835b9150505b95945050505050565b600081815260048301602052604090205460ff166117645760405162461bcd60e51b81526004016101e290612ff1565b60008181526004830160209081526040808320805460ff19169055600280860183528184208481556001818101869055910184905560038601909252822054818501549092916117b391613295565b905060008460010182815481106117da57634e487b7160e01b600052603260045260246000fd5b600091825260208083209091015480835260038801909152604080832086905586835282209190915560018601805491925082918590811061182c57634e487b7160e01b600052603260045260246000fd5b6000918252602090912001556001850180548061185957634e487b7160e01b600052603160045260246000fd5b600190038181906000526020600020016000905590555050505050565b60015460408051632c354e2760e11b815290516000926001600160a01b03169163586a9c4e916004808301926020929190829003018186803b1580156118bb57600080fd5b505afa1580156118cf573d6000803e3d6000fd5b505050506040513d601f19601f820116820180604052508101906118f39190612a63565b6001600160a01b0316836001600160a01b03161415611913575080611d73565b60007f00000000000000000000000000000000000000000000000000000000000000006001600160a01b031663e6a4390585600160009054906101000a90046001600160a01b03166001600160a01b031663586a9c4e6040518163ffffffff1660e01b815260040160206040518083038186803b15801561199357600080fd5b505afa1580156119a7573d6000803e3d6000fd5b505050506040513d601f19601f820116820180604052508101906119cb9190612a63565b6040518363ffffffff1660e01b81526004016119e8929190612c73565b60206040518083038186803b158015611a0057600080fd5b505afa158015611a14573d6000803e3d6000fd5b505050506040513d601f19601f82011682018060405250810190611a389190612a63565b90506001600160a01b03811615611ae157611ad98385600160009054906101000a90046001600160a01b03166001600160a01b031663586a9c4e6040518163ffffffff1660e01b815260040160206040518083038186803b158015611a9c57600080fd5b505afa158015611ab0573d6000803e3d6000fd5b505050506040513d601f19601f82011682018060405250810190611ad49190612a63565b612367565b915050611d73565b7f00000000000000000000000000000000000000000000000000000000000000006001600160a01b031663e6a43905857f00000000000000000000000000000000000000000000000000000000000000006001600160a01b031663ad5c46486040518163ffffffff1660e01b815260040160206040518083038186803b158015611b6a57600080fd5b505afa158015611b7e573d6000803e3d6000fd5b505050506040513d601f19601f82011682018060405250810190611ba29190612a63565b6040518363ffffffff1660e01b8152600401611bbf929190612c73565b60206040518083038186803b158015611bd757600080fd5b505afa158015611beb573d6000803e3d6000fd5b505050506040513d601f19601f82011682018060405250810190611c0f9190612a63565b90506001600160a01b03811615611d6e576000611c8084867f00000000000000000000000000000000000000000000000000000000000000006001600160a01b031663ad5c46486040518163ffffffff1660e01b815260040160206040518083038186803b158015611a9c57600080fd5b9050611d65817f00000000000000000000000000000000000000000000000000000000000000006001600160a01b031663ad5c46486040518163ffffffff1660e01b815260040160206040518083038186803b158015611cdf57600080fd5b505afa158015611cf3573d6000803e3d6000fd5b505050506040513d601f19601f82011682018060405250810190611d179190612a63565b600160009054906101000a90046001600160a01b03166001600160a01b031663586a9c4e6040518163ffffffff1660e01b815260040160206040518083038186803b158015611a9c57600080fd5b92505050611d73565b829150505b92915050565b600080836001600160a01b0316856001600160a01b03161415611dae5760405162461bcd60e51b81526004016101e290612dab565b6001600160a01b03851615801590611dce57506001600160a01b03841615155b611dea5760405162461bcd60e51b81526004016101e290612d3d565b60405163e6a4390560e01b81526000906001600160a01b037f0000000000000000000000000000000000000000000000000000000000000000169063e6a4390590611e3b9089908990600401612c73565b60206040518083038186803b158015611e5357600080fd5b505afa158015611e67573d6000803e3d6000fd5b505050506040513d601f19601f82011682018060405250810190611e8b9190612a63565b9050600080826001600160a01b0316630902f1ac6040518163ffffffff1660e01b815260040160606040518083038186803b158015611ec957600080fd5b505afa158015611edd573d6000803e3d6000fd5b505050506040513d601f19601f82011682018060405250810190611f019190612ba4565b506dffffffffffffffffffffffffffff1691506dffffffffffffffffffffffffffff169150600080886001600160a01b03168a6001600160a01b031610611f49578284611f4c565b83835b915091506000806001600160a01b03167f00000000000000000000000000000000000000000000000000000000000000006001600160a01b031663017e7e586040518163ffffffff1660e01b815260040160206040518083038186803b158015611fb557600080fd5b505afa158015611fc9573d6000803e3d6000fd5b505050506040513d601f19601f82011682018060405250810190611fed9190612a63565b6001600160a01b031614159050600081612008576000612079565b866001600160a01b0316637464fc3d6040518163ffffffff1660e01b815260040160206040518083038186803b15801561204157600080fd5b505afa158015612055573d6000803e3d6000fd5b505050506040513d601f19601f820116820180604052508101906120799190612be7565b90506000876001600160a01b03166318160ddd6040518163ffffffff1660e01b815260040160206040518083038186803b1580156120b657600080fd5b505afa1580156120ca573d6000803e3d6000fd5b505050506040513d601f19601f820116820180604052508101906120ee9190612be7565b90508280156120fd5750600082115b156121745760006121116115378688613276565b9050600061211e846122f7565b905080821115612171578260006121358385613295565b9050600083612145866005613276565b61214f9190613127565b9050600061215e848484612680565b905061216a8188613127565b9650505050505b50505b8061217f8c87613276565b612189919061313f565b816121948d87613276565b61219e919061313f565b995099505050505050505050935093915050565b8354600090815260048501602052604090205460ff16156121e55760405162461bcd60e51b81526004016101e290612e19565b835460009081526004850160209081526040808320805460ff191660019081179091558754845260028089018452828520889055885485528285208201879055885485528285200185905587810180548954865260038a01855292852083905588548383018255908552929093200181905561226091613127565b909355505050565b60006122bd826040518060400160405280602081526020017f5361666545524332303a206c6f772d6c6576656c2063616c6c206661696c6564815250856001600160a01b031661271b9092919063ffffffff16565b8051909150156111a457808060200190518101906122db9190612b84565b6111a45760405162461bcd60e51b81526004016101e290613026565b60006003821115612358575080600061231160028361313f565b61231c906001613127565b90505b8181101561235257905080600281612337818661313f565b6123419190613127565b61234b919061313f565b905061231f565b50612362565b8115612362575060015b919050565b6000807f00000000000000000000000000000000000000000000000000000000000000006001600160a01b031663e6a4390585856040518363ffffffff1660e01b81526004016123b8929190612c73565b60206040518083038186803b1580156123d057600080fd5b505afa1580156123e4573d6000803e3d6000fd5b505050506040513d601f19601f820116820180604052508101906124089190612a63565b90506001600160a01b0381166124305760405162461bcd60e51b81526004016101e290612f19565b600080856001600160a01b0316836001600160a01b0316630dfe16816040518163ffffffff1660e01b815260040160206040518083038186803b15801561247657600080fd5b505afa15801561248a573d6000803e3d6000fd5b505050506040513d601f19601f820116820180604052508101906124ae9190612a63565b6001600160a01b0316141561254b57826001600160a01b0316630902f1ac6040518163ffffffff1660e01b815260040160606040518083038186803b1580156124f657600080fd5b505afa15801561250a573d6000803e3d6000fd5b505050506040513d601f19601f8201168201806040525081019061252e9190612ba4565b506dffffffffffffffffffffffffffff91821693501690506125d5565b826001600160a01b0316630902f1ac6040518163ffffffff1660e01b815260040160606040518083038186803b15801561258457600080fd5b505afa158015612598573d6000803e3d6000fd5b505050506040513d601f19601f820116820180604052508101906125bc9190612ba4565b506dffffffffffffffffffffffffffff90811693501690505b604051632b58577b60e21b81526001600160a01b037f0000000000000000000000000000000000000000000000000000000000000000169063ad615dec90612625908a9086908690600401613111565b60206040518083038186803b15801561263d57600080fd5b505afa158015612651573d6000803e3d6000fd5b505050506040513d601f19601f820116820180604052508101906126759190612be7565b979650505050505050565b600080600061268f8686612732565b91509150600084806126b157634e487b7160e01b600052601260045260246000fd5b8688099050828111156126cc576126c9600183613295565b91505b6126d68184613295565b9250816126f1576126e7858461313f565b93505050506103c9565b8482106127105760405162461bcd60e51b81526004016101e290612ee2565b612675838387612774565b606061272a848460008561290b565b949350505050565b6000808060001984860990506127488486613276565b92506127548382613295565b91508281101561276c57612769600183613295565b91505b509250929050565b60008061278383600019613295565b61278e906001613127565b8316905061279c818461313f565b92506127a8818661313f565b9450806127b781600019613295565b6127c2906001613127565b6127cc919061313f565b6127d7906001613127565b6127e19085613276565b6127eb9086613127565b945060016127f98185613276565b612804906002613295565b61280e9082613276565b905061281a8185613276565b612825906002613295565b61282f9082613276565b905061283b8185613276565b612846906002613295565b6128509082613276565b905061285c8185613276565b612867906002613295565b6128719082613276565b905061287d8185613276565b612888906002613295565b6128929082613276565b905061289e8185613276565b6128a9906002613295565b6128b39082613276565b90506128bf8185613276565b6128ca906002613295565b6128d49082613276565b90506128e08185613276565b6128eb906002613295565b6128f59082613276565b90506129018187613276565b9695505050505050565b60608247101561292d5760405162461bcd60e51b81526004016101e290612e50565b612936856129c0565b6129525760405162461bcd60e51b81526004016101e290612fba565b600080866001600160a01b0316858760405161296e9190612c43565b60006040518083038185875af1925050503d80600081146129ab576040519150601f19603f3d011682016040523d82523d6000602084013e6129b0565b606091505b50915091506126758282866129cf565b6001600160a01b03163b151590565b606083156129de5750816103c9565b8251156129ee5782518084602001fd5b8160405162461bcd60e51b81526004016101e29190612d0a565b60405180606001604052806000815260200160008152602001600081525090565b80516dffffffffffffffffffffffffffff8116811461236257600080fd5b600060208284031215612a58578081fd5b81356103c9816132f2565b600060208284031215612a74578081fd5b81516103c9816132f2565b600080600060608486031215612a93578182fd5b8335612a9e816132f2565b92506020840135612aae816132f2565b91506040840135612abe816132f2565b809150509250925092565b60008060008060808587031215612ade578081fd5b8435612ae9816132f2565b93506020850135612af9816132f2565b92506040850135612b09816132f2565b9396929550929360600135925050565b600080600060608486031215612b2d578283fd5b8335612b38816132f2565b92506020840135612b48816132f2565b929592945050506040919091013590565b60008060408385031215612b6b578182fd5b8235612b76816132f2565b946020939093013593505050565b600060208284031215612b95578081fd5b815180151581146103c9578182fd5b600080600060608486031215612bb8578283fd5b612bc184612a29565b9250612bcf60208501612a29565b9150604084015163ffffffff81168114612abe578182fd5b600060208284031215612bf8578081fd5b5051919050565b60008060408385031215612c11578182fd5b505080516020909101519092909150565b600060208284031215612c33578081fd5b815160ff811681146103c9578182fd5b60008251612c558184602087016132ac565b9190910192915050565b6001600160a01b0391909116815260200190565b6001600160a01b0392831681529116602082015260400190565b6001600160a01b039384168152919092166020820152604081019190915260600190565b6001600160a01b039788168152958716602087015260408601949094526060850192909252608084015290921660a082015260c081019190915260e00190565b6001600160a01b03929092168252602082015260400190565b6000602082528251806020840152612d298160408501602087016132ac565b601f01601f19169190910160400192915050565b6020808252601c908201527f556e697377617056325574696c733a205a45524f5f4144445245535300000000604082015260600190565b60208082526019908201527f414d4d5661756c743a204e6f7420617574686f72697a65642100000000000000604082015260600190565b6020808252601e908201527f556e697377617056325574696c733a2053414d455f4144445245535345530000604082015260600190565b6020808252601e908201527f414d4d5661756c743a204e6f7420617070726f766564206361706974616c0000604082015260600190565b6020808252601a908201527f4c7042756e646c65733a6164644142756e646c652d6578697374000000000000604082015260600190565b60208082526026908201527f416464726573733a20696e73756666696369656e742062616c616e636520666f60408201527f722063616c6c0000000000000000000000000000000000000000000000000000606082015260800190565b6020808252818101527f5375736869737761704c504d6967726174696f6e3a4e6f6e6578697374204c50604082015260600190565b6020808252601a908201527f46756c6c4d6174683a2046554c4c4449565f4f564552464c4f57000000000000604082015260600190565b6020808252601b908201527f556e697377617056325574696c733a206e6f206c7020706169722e0000000000604082015260600190565b6020808252818101527f5375736869737761704c504d6967726174696f6e3a206e6f204c502070616972604082015260600190565b6020808252818101527f5375736869737761704c504d6967726174696f6e3a204e6f206361706974616c604082015260600190565b6020808252601d908201527f416464726573733a2063616c6c20746f206e6f6e2d636f6e7472616374000000604082015260600190565b6020808252818101527f4c7042756e646c65733a72656d6f76654142756e646c652d6e6f6e6578697374604082015260600190565b6020808252602a908201527f5361666545524332303a204552433230206f7065726174696f6e20646964206e60408201527f6f74207375636365656400000000000000000000000000000000000000000000606082015260800190565b6020808252601f908201527f5265656e7472616e637947756172643a207265656e7472616e742063616c6c00604082015260600190565b81518152602080830151908201526040918201519181019190915260600190565b90815260200190565b9283526001600160a01b03918216602084015216604082015260600190565b918252602082015260400190565b9283526020830191909152604082015260600190565b6000821982111561313a5761313a6132dc565b500190565b60008261315a57634e487b7160e01b81526012600452602481fd5b500490565b80825b6001808611613171575061319c565b818704821115613183576131836132dc565b8086161561319057918102915b9490941c938002613162565b94509492505050565b60006103c960001960ff8516846000826131c1575060016103c9565b816131ce575060006103c9565b81600181146131e457600281146131ee5761321b565b60019150506103c9565b60ff8411156131ff576131ff6132dc565b6001841b915084821115613215576132156132dc565b506103c9565b5060208310610133831016604e8410600b841016171561324e575081810a83811115613249576132496132dc565b6103c9565b61325b848484600161315f565b80860482111561326d5761326d6132dc565b02949350505050565b6000816000190483118215151615613290576132906132dc565b500290565b6000828210156132a7576132a76132dc565b500390565b60005b838110156132c75781810151838201526020016132af565b838111156132d6576000848401525b50505050565b634e487b7160e01b600052601160045260246000fd5b6001600160a01b038116811461039257600080fdfea164736f6c6343000801000a",
    "linkReferences": {},
    "deployedLinkReferences": {}
}