{
    "_format": "hh-sol-artifact-1",
    "contractName": "SushiswapVault",
    "sourceName": "contracts/SushiswapVault.sol",
    "abi": [
        {
            "inputs": [
                {
                    "internalType": "address",
                    "name": "factory_",
                    "type": "address"
                },
                {
                    "internalType": "address",
                    "name": "router_",
                    "type": "address"
                },
                {
                    "internalType": "address",
                    "name": "assetVault_",
                    "type": "address"
                },
                {
                    "internalType": "address",
                    "name": "policy_",
                    "type": "address"
                }
            ],
            "stateMutability": "nonpayable",
            "type": "constructor"
        },
        {
            "anonymous": false,
            "inputs": [
                {
                    "indexed": true,
                    "internalType": "address",
                    "name": "investor",
                    "type": "address"
                },
                {
                    "indexed": true,
                    "internalType": "address",
                    "name": "capital",
                    "type": "address"
                },
                {
                    "indexed": true,
                    "internalType": "address",
                    "name": "asset",
                    "type": "address"
                },
                {
                    "indexed": false,
                    "internalType": "uint256",
                    "name": "bundleID",
                    "type": "uint256"
                }
            ],
            "name": "BundleCreated",
            "type": "event"
        },
        {
            "anonymous": false,
            "inputs": [
                {
                    "indexed": true,
                    "internalType": "address",
                    "name": "investor",
                    "type": "address"
                },
                {
                    "indexed": true,
                    "internalType": "address",
                    "name": "capital",
                    "type": "address"
                },
                {
                    "indexed": true,
                    "internalType": "address",
                    "name": "asset",
                    "type": "address"
                },
                {
                    "indexed": false,
                    "internalType": "uint256",
                    "name": "bundleID",
                    "type": "uint256"
                },
                {
                    "indexed": false,
                    "internalType": "uint256",
                    "name": "commission",
                    "type": "uint256"
                }
            ],
            "name": "BundleRemoved",
            "type": "event"
        },
        {
            "anonymous": false,
            "inputs": [
                {
                    "indexed": true,
                    "internalType": "address",
                    "name": "investor",
                    "type": "address"
                },
                {
                    "indexed": false,
                    "internalType": "address",
                    "name": "pair",
                    "type": "address"
                },
                {
                    "indexed": true,
                    "internalType": "address",
                    "name": "capital",
                    "type": "address"
                },
                {
                    "indexed": true,
                    "internalType": "address",
                    "name": "asset",
                    "type": "address"
                },
                {
                    "indexed": false,
                    "internalType": "uint256",
                    "name": "confirmedCapitalAmount",
                    "type": "uint256"
                },
                {
                    "indexed": false,
                    "internalType": "uint256",
                    "name": "confirmedAssetAmount",
                    "type": "uint256"
                },
                {
                    "indexed": false,
                    "internalType": "uint256",
                    "name": "lpTokenAmount",
                    "type": "uint256"
                },
                {
                    "indexed": false,
                    "internalType": "uint256",
                    "name": "bundleID",
                    "type": "uint256"
                }
            ],
            "name": "LiquidityProvided",
            "type": "event"
        },
        {
            "anonymous": false,
            "inputs": [
                {
                    "indexed": true,
                    "internalType": "address",
                    "name": "investor",
                    "type": "address"
                },
                {
                    "indexed": false,
                    "internalType": "address",
                    "name": "pair",
                    "type": "address"
                },
                {
                    "indexed": true,
                    "internalType": "address",
                    "name": "capital",
                    "type": "address"
                },
                {
                    "indexed": true,
                    "internalType": "address",
                    "name": "asset",
                    "type": "address"
                },
                {
                    "indexed": false,
                    "internalType": "uint256",
                    "name": "lpTokenAmount",
                    "type": "uint256"
                },
                {
                    "indexed": false,
                    "internalType": "uint256",
                    "name": "returnedCapitalAmount",
                    "type": "uint256"
                },
                {
                    "indexed": false,
                    "internalType": "uint256",
                    "name": "returnedAssetAmount",
                    "type": "uint256"
                },
                {
                    "indexed": false,
                    "internalType": "uint256",
                    "name": "bundleID",
                    "type": "uint256"
                }
            ],
            "name": "LiquidityRemoved",
            "type": "event"
        },
        {
            "inputs": [
                {
                    "internalType": "address",
                    "name": "capital",
                    "type": "address"
                },
                {
                    "internalType": "uint256",
                    "name": "amount",
                    "type": "uint256"
                },
                {
                    "internalType": "address",
                    "name": "asset",
                    "type": "address"
                }
            ],
            "name": "addLiquidity",
            "outputs": [],
            "stateMutability": "nonpayable",
            "type": "function"
        },
        {
            "inputs": [
                {
                    "internalType": "address",
                    "name": "capital",
                    "type": "address"
                },
                {
                    "internalType": "address",
                    "name": "asset",
                    "type": "address"
                },
                {
                    "internalType": "address",
                    "name": "investor",
                    "type": "address"
                },
                {
                    "internalType": "uint256",
                    "name": "index",
                    "type": "uint256"
                }
            ],
            "name": "getActiveBundleIDByIndex",
            "outputs": [
                {
                    "internalType": "uint256",
                    "name": "",
                    "type": "uint256"
                }
            ],
            "stateMutability": "view",
            "type": "function"
        },
        {
            "inputs": [
                {
                    "internalType": "address",
                    "name": "capital",
                    "type": "address"
                },
                {
                    "internalType": "address",
                    "name": "asset",
                    "type": "address"
                },
                {
                    "internalType": "address",
                    "name": "investor",
                    "type": "address"
                },
                {
                    "internalType": "uint256",
                    "name": "bundleID",
                    "type": "uint256"
                }
            ],
            "name": "getBundleInfo",
            "outputs": [
                {
                    "components": [
                        {
                            "internalType": "uint256",
                            "name": "capitalAmount",
                            "type": "uint256"
                        },
                        {
                            "internalType": "uint256",
                            "name": "assetAmount",
                            "type": "uint256"
                        },
                        {
                            "internalType": "uint256",
                            "name": "lpTokenAmount",
                            "type": "uint256"
                        }
                    ],
                    "internalType": "struct LpBundles.Bundle",
                    "name": "",
                    "type": "tuple"
                }
            ],
            "stateMutability": "view",
            "type": "function"
        },
        {
            "inputs": [
                {
                    "internalType": "address",
                    "name": "capital",
                    "type": "address"
                },
                {
                    "internalType": "address",
                    "name": "asset",
                    "type": "address"
                },
                {
                    "internalType": "address",
                    "name": "investor",
                    "type": "address"
                }
            ],
            "name": "getCountOfActiveBundleIDs",
            "outputs": [
                {
                    "internalType": "uint256",
                    "name": "",
                    "type": "uint256"
                }
            ],
            "stateMutability": "view",
            "type": "function"
        },
        {
            "inputs": [
                {
                    "internalType": "address",
                    "name": "",
                    "type": "address"
                },
                {
                    "internalType": "address",
                    "name": "",
                    "type": "address"
                },
                {
                    "internalType": "address",
                    "name": "",
                    "type": "address"
                }
            ],
            "name": "lpBundles",
            "outputs": [
                {
                    "internalType": "uint256",
                    "name": "nextBundleID",
                    "type": "uint256"
                }
            ],
            "stateMutability": "view",
            "type": "function"
        },
        {
            "inputs": [
                {
                    "internalType": "address",
                    "name": "capital",
                    "type": "address"
                },
                {
                    "internalType": "address",
                    "name": "asset",
                    "type": "address"
                },
                {
                    "internalType": "uint256",
                    "name": "bundleID",
                    "type": "uint256"
                },
                {
                    "internalType": "uint256",
                    "name": "amountAssetIn",
                    "type": "uint256"
                }
            ],
            "name": "removeLiquidity",
            "outputs": [],
            "stateMutability": "nonpayable",
            "type": "function"
        },
        {
            "inputs": [
                {
                    "internalType": "address",
                    "name": "capital",
                    "type": "address"
                }
            ],
            "name": "withdrawFees",
            "outputs": [],
            "stateMutability": "nonpayable",
            "type": "function"
        }
    ],
    "bytecode": "0x60c06040523480156200001157600080fd5b50604051620035a6380380620035a68339810160408190526200003491620000a1565b600080546001600160a01b039384166001600160a01b031991821617909155600180549290931691161781556001600160601b0319606093841b81166080529190921b1660a052600355620000fd565b80516001600160a01b03811681146200009c57600080fd5b919050565b60008060008060808587031215620000b7578384fd5b620000c28562000084565b9350620000d26020860162000084565b9250620000e26040860162000084565b9150620000f26060860162000084565b905092959194509250565b60805160601c60a05160601c6134296200017d60003960008181610850015281816108f10152818161097501528181611067015281816110e901528181611b2b01528181611c4101528181611ca00152612016015260008181610a2a01528181610f940152818161192f01528181611afb0152611d9601526134296000f3fe608060405234801561001057600080fd5b506004361061007d5760003560e01c806370f23c1e1161005b57806370f23c1e146100bd57806375d2f73f146100e6578063c777aa54146100f9578063f00befd51461010c5761007d565b8063164e68de146100825780631b879378146100975780633ee7f9d3146100aa575b600080fd5b610095610090366004612aa6565b61012c565b005b6100956100a5366004612bbd565b610395565b6100956100b8366004612b78565b610c62565b6100d06100cb366004612ade565b6116d0565b6040516100dd91906131f4565b60405180910390f35b6100d06100f4366004612b28565b61170b565b6100d0610107366004612ade565b611776565b61011f61011a366004612b28565b611799565b6040516100dd91906131d3565b600160009054906101000a90046001600160a01b03166001600160a01b0316636611f5286040518163ffffffff1660e01b815260040160206040518083038186803b15801561017a57600080fd5b505afa15801561018e573d6000803e3d6000fd5b505050506040513d601f19601f820116820180604052508101906101b29190612ac2565b6001600160a01b0316336001600160a01b0316146101eb5760405162461bcd60e51b81526004016101e290612e50565b60405180910390fd5b6001546040516363b8284960e11b81526001600160a01b039091169063c77050929061021b908490600401612cfb565b60206040518083038186803b15801561023357600080fd5b505afa158015610247573d6000803e3d6000fd5b505050506040513d601f19601f8201168201806040525081019061026b9190612bf3565b6102875760405162461bcd60e51b81526004016101e290612ebe565b60015460408051630cc23ea560e31b81529051610392926001600160a01b031691636611f528916004808301926020929190829003018186803b1580156102cd57600080fd5b505afa1580156102e1573d6000803e3d6000fd5b505050506040513d601f19601f820116820180604052508101906103059190612ac2565b6040516370a0823160e01b81526001600160a01b038416906370a0823190610331903090600401612cfb565b60206040518083038186803b15801561034957600080fd5b505afa15801561035d573d6000803e3d6000fd5b505050506040513d601f19601f820116820180604052508101906103819190612c56565b6001600160a01b0384169190611806565b50565b600260035414156103b85760405162461bcd60e51b81526004016101e290613165565b60026003556001546040516363b8284960e11b81526001600160a01b039091169063c7705092906103ed908690600401612cfb565b60206040518083038186803b15801561040557600080fd5b505afa158015610419573d6000803e3d6000fd5b505050506040513d601f19601f8201168201806040525081019061043d9190612bf3565b6104595760405162461bcd60e51b81526004016101e29061309c565b600082116104795760405162461bcd60e51b81526004016101e290612ff7565b6001546040805163c4dec68b60e01b815290516000926001600160a01b03169163c4dec68b916004808301926020929190829003018186803b1580156104be57600080fd5b505afa1580156104d2573d6000803e3d6000fd5b505050506040513d601f19601f820116820180604052508101906104f69190612ac2565b6001600160a01b031614610706576000610510848461188e565b9050600160009054906101000a90046001600160a01b03166001600160a01b031663586a9c4e6040518163ffffffff1660e01b815260040160206040518083038186803b15801561056057600080fd5b505afa158015610574573d6000803e3d6000fd5b505050506040513d601f19601f820116820180604052508101906105989190612ac2565b6001600160a01b031663313ce5676040518163ffffffff1660e01b815260040160206040518083038186803b1580156105d057600080fd5b505afa1580156105e4573d6000803e3d6000fd5b505050506040513d601f19601f820116820180604052508101906106089190612cbe565b61061390600a6132be565b61061d9082613258565b9050600160009054906101000a90046001600160a01b03166001600160a01b031663c4dec68b6040518163ffffffff1660e01b815260040160206040518083038186803b15801561066d57600080fd5b505afa158015610681573d6000803e3d6000fd5b505050506040513d601f19601f820116820180604052508101906106a59190612ac2565b6001600160a01b031663e98254bb33836040518363ffffffff1660e01b81526004016106d2929190612dd6565b600060405180830381600087803b1580156106ec57600080fd5b505af1158015610700573d6000803e3d6000fd5b50505050505b6000610713838584611d91565b60005460405163c506877960e01b81529192506001600160a01b03169063c506877990610744908590600401612cfb565b60206040518083038186803b15801561075c57600080fd5b505afa158015610770573d6000803e3d6000fd5b505050506040513d601f19601f820116820180604052508101906107949190612c56565b8111156107b35760405162461bcd60e51b81526004016101e29061319c565b6107c86001600160a01b0385163330866120aa565b600054604051634b8a352960e01b81526001600160a01b0390911690634b8a3529906107fa9085908590600401612dd6565b600060405180830381600087803b15801561081457600080fd5b505af1158015610828573d6000803e3d6000fd5b505060405163095ea7b360e01b81526001600160a01b038716925063095ea7b3915061087a907f0000000000000000000000000000000000000000000000000000000000000000908790600401612dd6565b602060405180830381600087803b15801561089457600080fd5b505af11580156108a8573d6000803e3d6000fd5b505050506040513d601f19601f820116820180604052508101906108cc9190612bf3565b5060405163095ea7b360e01b81526001600160a01b0383169063095ea7b39061091b907f0000000000000000000000000000000000000000000000000000000000000000908590600401612dd6565b602060405180830381600087803b15801561093557600080fd5b505af1158015610949573d6000803e3d6000fd5b505050506040513d601f19601f8201168201806040525081019061096d9190612bf3565b5060008060007f00000000000000000000000000000000000000000000000000000000000000006001600160a01b031663e8e337008887898860008030426040518963ffffffff1660e01b81526004016109ce989796959493929190612d8d565b606060405180830381600087803b1580156109e857600080fd5b505af11580156109fc573d6000803e3d6000fd5b505050506040513d601f19601f82011682018060405250810190610a209190612c91565b92509250925060007f00000000000000000000000000000000000000000000000000000000000000006001600160a01b031663e6a4390589886040518363ffffffff1660e01b8152600401610a76929190612d0f565b60206040518083038186803b158015610a8e57600080fd5b505afa158015610aa2573d6000803e3d6000fd5b505050506040513d601f19601f82011682018060405250810190610ac69190612ac2565b3360008181526002602090815260408083206001600160a01b038e8116808652918452828520908d1680865293529281902080549151959650949193917f0135e8309359d5f153164d1b5a672b337dce8e305244b0452b6f3b7dad6cc4a291610b369188918c918c918c91612def565b60405180910390a46000610b4a85886133ae565b1115610bbc576000546001600160a01b03166322867d7888610b6c878a6133ae565b6040518363ffffffff1660e01b8152600401610b89929190612dd6565b600060405180830381600087803b158015610ba357600080fd5b505af1158015610bb7573d6000803e3d6000fd5b505050505b6000610bc8868a6133ae565b1115610bed57610bed33610bdc878b6133ae565b6001600160a01b038c169190611806565b866001600160a01b0316896001600160a01b0316336001600160a01b03167f9cef84480b7332980f8b91cae1c15d8a78e1c53aec748aaf91bc7db67c37f4198460000154604051610c3e91906131f4565b60405180910390a4610c52818686866120d1565b5050600160035550505050505050565b60026003541415610c855760405162461bcd60e51b81526004016101e290613165565b60026003819055336000908152602082815260408083206001600160a01b038981168552908352818420908816845282528083208684528085019092529091209182015490919080610ce95760405162461bcd60e51b81526004016101e290612ef5565b6001546040805163c4dec68b60e01b815290516000926001600160a01b03169163c4dec68b916004808301926020929190829003018186803b158015610d2e57600080fd5b505afa158015610d42573d6000803e3d6000fd5b505050506040513d601f19601f82011682018060405250810190610d669190612ac2565b6001600160a01b031614610f7a576000610d8488846000015461188e565b9050600160009054906101000a90046001600160a01b03166001600160a01b031663586a9c4e6040518163ffffffff1660e01b815260040160206040518083038186803b158015610dd457600080fd5b505afa158015610de8573d6000803e3d6000fd5b505050506040513d601f19601f82011682018060405250810190610e0c9190612ac2565b6001600160a01b031663313ce5676040518163ffffffff1660e01b815260040160206040518083038186803b158015610e4457600080fd5b505afa158015610e58573d6000803e3d6000fd5b505050506040513d601f19601f82011682018060405250810190610e7c9190612cbe565b610e8790600a6132be565b610e919082613258565b9050600160009054906101000a90046001600160a01b03166001600160a01b031663c4dec68b6040518163ffffffff1660e01b815260040160206040518083038186803b158015610ee157600080fd5b505afa158015610ef5573d6000803e3d6000fd5b505050506040513d601f19601f82011682018060405250810190610f199190612ac2565b6001600160a01b031663d5b6325f33836040518363ffffffff1660e01b8152600401610f46929190612dd6565b600060405180830381600087803b158015610f6057600080fd5b505af1158015610f74573d6000803e3d6000fd5b50505050505b60405163e6a4390560e01b81526000906001600160a01b037f0000000000000000000000000000000000000000000000000000000000000000169063e6a4390590610fcb908b908b90600401612d0f565b60206040518083038186803b158015610fe357600080fd5b505afa158015610ff7573d6000803e3d6000fd5b505050506040513d601f19601f8201168201806040525081019061101b9190612ac2565b90506001600160a01b0381166110435760405162461bcd60e51b81526004016101e290612fc0565b60405163095ea7b360e01b81526001600160a01b0382169063095ea7b390611091907f0000000000000000000000000000000000000000000000000000000000000000908690600401612dd6565b602060405180830381600087803b1580156110ab57600080fd5b505af11580156110bf573d6000803e3d6000fd5b505050506040513d601f19601f820116820180604052508101906110e39190612bf3565b506000807f00000000000000000000000000000000000000000000000000000000000000006001600160a01b031663baa2abde8b8b8760008030426040518863ffffffff1660e01b81526004016111409796959493929190612d4d565b6040805180830381600087803b15801561115957600080fd5b505af115801561116d573d6000803e3d6000fd5b505050506040513d601f19601f820116820180604052508101906111919190612c6e565b91509150886001600160a01b03168a6001600160a01b0316336001600160a01b03167f106bba689fbe1af43d041772e33395d1f71d25aab2c87f528c6b780e680d14ef868887878f6040516111ea959493929190612def565b60405180910390a460006112148b8b8860010154896000015461120d919061338f565b8686612187565b905061122081846133ae565b9250856001015482101561127d57600186015461123d8984613240565b101561125b5760405162461bcd60e51b81526004016101e290612e87565b6112706001600160a01b038b1633308b6120aa565b61127a8883613240565b91505b600054600187015460405163095ea7b360e01b81526001600160a01b038d81169363095ea7b3936112b5939290911691600401612dd6565b602060405180830381600087803b1580156112cf57600080fd5b505af11580156112e3573d6000803e3d6000fd5b505050506040513d601f19601f820116820180604052508101906113079190612bf3565b506000546001870154604051630450cfaf60e31b81526001600160a01b03909216916322867d789161133e918e9190600401612dd6565b600060405180830381600087803b15801561135857600080fd5b505af115801561136c573d6000803e3d6000fd5b505050600187015461137f9150836133ae565b915061138b878a612712565b896001600160a01b03168b6001600160a01b0316336001600160a01b03167f798d9733b97285407fda6c76d95fcf7c835bc88b9600933330a931925a6062d28c856040516113da92919061321c565b60405180910390a482156113fc576113fc6001600160a01b038c163385611806565b8115611416576114166001600160a01b038b163384611806565b600154604080516334140c5760e21b815290516000926001600160a01b03169163d050315c916004808301926020929190829003018186803b15801561145b57600080fd5b505afa15801561146f573d6000803e3d6000fd5b505050506040513d601f19601f820116820180604052508101906114939190612ac2565b6001600160a01b0316146116be5760006114ad8c8361188e565b9050600160009054906101000a90046001600160a01b03166001600160a01b031663586a9c4e6040518163ffffffff1660e01b815260040160206040518083038186803b1580156114fd57600080fd5b505afa158015611511573d6000803e3d6000fd5b505050506040513d601f19601f820116820180604052508101906115359190612ac2565b6001600160a01b031663313ce5676040518163ffffffff1660e01b815260040160206040518083038186803b15801561156d57600080fd5b505afa158015611581573d6000803e3d6000fd5b505050506040513d601f19601f820116820180604052508101906115a59190612cbe565b6115b090600a6132be565b6115c9826ec097ce7bc90715b34b9f100000000061338f565b6115d39190613258565b9050600160009054906101000a90046001600160a01b03166001600160a01b031663d050315c6040518163ffffffff1660e01b815260040160206040518083038186803b15801561162357600080fd5b505afa158015611637573d6000803e3d6000fd5b505050506040513d601f19601f8201168201806040525081019061165b9190612ac2565b6001600160a01b0316634f10fc4082338e6040518463ffffffff1660e01b815260040161168a939291906131fd565b600060405180830381600087803b1580156116a457600080fd5b505af11580156116b8573d6000803e3d6000fd5b50505050505b50506001600355505050505050505050565b6001600160a01b03808216600090815260026020908152604080832087851684528252808320938616835292905220600101545b9392505050565b6001600160a01b0380831660009081526002602090815260408083208885168452825280832093871683529290529081206001810180548490811061176057634e487b7160e01b600052603260045260246000fd5b9060005260206000200154915050949350505050565b600260209081526000938452604080852082529284528284209052825290205481565b6117a1612a67565b506001600160a01b03918216600090815260026020818152604080842097861684529681528683209590941682529383528481209181529083018252839020835160608101855281548152600182015492810192909252909101549181019190915290565b6118898363a9059cbb60e01b8484604051602401611825929190612dd6565b60408051601f198184030181529190526020810180517bffffffffffffffffffffffffffffffffffffffffffffffffffffffff167fffffffff0000000000000000000000000000000000000000000000000000000090931692909217909152612854565b505050565b60015460408051632c354e2760e11b815290516000926001600160a01b03169163586a9c4e916004808301926020929190829003018186803b1580156118d357600080fd5b505afa1580156118e7573d6000803e3d6000fd5b505050506040513d601f19601f8201168201806040525081019061190b9190612ac2565b6001600160a01b0316836001600160a01b0316141561192b575080611d8b565b60007f00000000000000000000000000000000000000000000000000000000000000006001600160a01b031663e6a4390585600160009054906101000a90046001600160a01b03166001600160a01b031663586a9c4e6040518163ffffffff1660e01b815260040160206040518083038186803b1580156119ab57600080fd5b505afa1580156119bf573d6000803e3d6000fd5b505050506040513d601f19601f820116820180604052508101906119e39190612ac2565b6040518363ffffffff1660e01b8152600401611a00929190612d0f565b60206040518083038186803b158015611a1857600080fd5b505afa158015611a2c573d6000803e3d6000fd5b505050506040513d601f19601f82011682018060405250810190611a509190612ac2565b90506001600160a01b03811615611af957611af18385600160009054906101000a90046001600160a01b03166001600160a01b031663586a9c4e6040518163ffffffff1660e01b815260040160206040518083038186803b158015611ab457600080fd5b505afa158015611ac8573d6000803e3d6000fd5b505050506040513d601f19601f82011682018060405250810190611aec9190612ac2565b611d91565b915050611d8b565b7f00000000000000000000000000000000000000000000000000000000000000006001600160a01b031663e6a43905857f00000000000000000000000000000000000000000000000000000000000000006001600160a01b031663ad5c46486040518163ffffffff1660e01b815260040160206040518083038186803b158015611b8257600080fd5b505afa158015611b96573d6000803e3d6000fd5b505050506040513d601f19601f82011682018060405250810190611bba9190612ac2565b6040518363ffffffff1660e01b8152600401611bd7929190612d0f565b60206040518083038186803b158015611bef57600080fd5b505afa158015611c03573d6000803e3d6000fd5b505050506040513d601f19601f82011682018060405250810190611c279190612ac2565b90506001600160a01b03811615611d86576000611c9884867f00000000000000000000000000000000000000000000000000000000000000006001600160a01b031663ad5c46486040518163ffffffff1660e01b815260040160206040518083038186803b158015611ab457600080fd5b9050611d7d817f00000000000000000000000000000000000000000000000000000000000000006001600160a01b031663ad5c46486040518163ffffffff1660e01b815260040160206040518083038186803b158015611cf757600080fd5b505afa158015611d0b573d6000803e3d6000fd5b505050506040513d601f19601f82011682018060405250810190611d2f9190612ac2565b600160009054906101000a90046001600160a01b03166001600160a01b031663586a9c4e6040518163ffffffff1660e01b815260040160206040518083038186803b158015611ab457600080fd5b92505050611d8b565b829150505b92915050565b6000807f00000000000000000000000000000000000000000000000000000000000000006001600160a01b031663e6a4390585856040518363ffffffff1660e01b8152600401611de2929190612d0f565b60206040518083038186803b158015611dfa57600080fd5b505afa158015611e0e573d6000803e3d6000fd5b505050506040513d601f19601f82011682018060405250810190611e329190612ac2565b90506001600160a01b038116611e5a5760405162461bcd60e51b81526004016101e29061302e565b600080856001600160a01b0316836001600160a01b0316630dfe16816040518163ffffffff1660e01b815260040160206040518083038186803b158015611ea057600080fd5b505afa158015611eb4573d6000803e3d6000fd5b505050506040513d601f19601f82011682018060405250810190611ed89190612ac2565b6001600160a01b03161415611f7557826001600160a01b0316630902f1ac6040518163ffffffff1660e01b815260040160606040518083038186803b158015611f2057600080fd5b505afa158015611f34573d6000803e3d6000fd5b505050506040513d601f19601f82011682018060405250810190611f589190612c13565b506dffffffffffffffffffffffffffff9182169350169050611fff565b826001600160a01b0316630902f1ac6040518163ffffffff1660e01b815260040160606040518083038186803b158015611fae57600080fd5b505afa158015611fc2573d6000803e3d6000fd5b505050506040513d601f19601f82011682018060405250810190611fe69190612c13565b506dffffffffffffffffffffffffffff90811693501690505b604051632b58577b60e21b81526001600160a01b037f0000000000000000000000000000000000000000000000000000000000000000169063ad615dec9061204f908a908690869060040161322a565b60206040518083038186803b15801561206757600080fd5b505afa15801561207b573d6000803e3d6000fd5b505050506040513d601f19601f8201168201806040525081019061209f9190612c56565b979650505050505050565b6120cb846323b872dd60e01b85858560405160240161182593929190612d29565b50505050565b8354600090815260048501602052604090205460ff16156121045760405162461bcd60e51b81526004016101e290612f2c565b835460009081526004850160209081526040808320805460ff191660019081179091558754845260028089018452828520889055885485528285208201879055885485528285200185905587810180548954865260038a01855292852083905588548383018255908552929093200181905561217f91613240565b909355505050565b600080600160009054906101000a90046001600160a01b03166001600160a01b03166384e5eed06040518163ffffffff1660e01b815260040160206040518083038186803b1580156121d857600080fd5b505afa1580156121ec573d6000803e3d6000fd5b505050506040513d601f19601f820116820180604052508101906122109190612c56565b1161221d57506000612709565b83612228838561338f565b1161223557506000612709565b600061251a612244848661338f565b60015460408051634aec5ab560e11b8152905189926001600160a01b0316916395d8b56a916004808301926020929190829003018186803b15801561228857600080fd5b505afa15801561229c573d6000803e3d6000fd5b505050506040513d601f19601f820116820180604052508101906122c09190612c56565b600160009054906101000a90046001600160a01b03166001600160a01b03166384e5eed06040518163ffffffff1660e01b815260040160206040518083038186803b15801561230e57600080fd5b505afa158015612322573d6000803e3d6000fd5b505050506040513d601f19601f820116820180604052508101906123469190612c56565b612350919061338f565b61235a919061338f565b6123649190613258565b600160009054906101000a90046001600160a01b03166001600160a01b03166395d8b56a6040518163ffffffff1660e01b815260040160206040518083038186803b1580156123b257600080fd5b505afa1580156123c6573d6000803e3d6000fd5b505050506040513d601f19601f820116820180604052508101906123ea9190612c56565b600160009054906101000a90046001600160a01b03166001600160a01b03166384e5eed06040518163ffffffff1660e01b815260040160206040518083038186803b15801561243857600080fd5b505afa15801561244c573d6000803e3d6000fd5b505050506040513d601f19601f820116820180604052508101906124709190612c56565b61247a919061338f565b60015460408051634aec5ab560e11b815290516002926001600160a01b0316916395d8b56a916004808301926020929190829003018186803b1580156124bf57600080fd5b505afa1580156124d3573d6000803e3d6000fd5b505050506040513d601f19601f820116820180604052508101906124f79190612c56565b61250191906132be565b61250b91906133ae565b6125159190613240565b6128e3565b600160009054906101000a90046001600160a01b03166001600160a01b03166395d8b56a6040518163ffffffff1660e01b815260040160206040518083038186803b15801561256857600080fd5b505afa15801561257c573d6000803e3d6000fd5b505050506040513d601f19601f820116820180604052508101906125a09190612c56565b6125aa91906133ae565b90506000600160009054906101000a90046001600160a01b03166001600160a01b03166395d8b56a6040518163ffffffff1660e01b815260040160206040518083038186803b1580156125fc57600080fd5b505afa158015612610573d6000803e3d6000fd5b505050506040513d601f19601f820116820180604052508101906126349190612c56565b61263e838761338f565b6126489190613258565b90506126ee600160009054906101000a90046001600160a01b03166001600160a01b03166395d8b56a6040518163ffffffff1660e01b815260040160206040518083038186803b15801561269b57600080fd5b505afa1580156126af573d6000803e3d6000fd5b505050506040513d601f19601f820116820180604052508101906126d39190612c56565b6126dd848761338f565b6126e79190613258565b888a611d91565b6126f89082613240565b9050848111156127055750835b9150505b95945050505050565b600081815260048301602052604090205460ff166127425760405162461bcd60e51b81526004016101e2906130d3565b60008181526004830160209081526040808320805460ff1916905560028086018352818420848155600181810186905591018490556003860190925282205481850154909291612791916133ae565b905060008460010182815481106127b857634e487b7160e01b600052603260045260246000fd5b600091825260208083209091015480835260038801909152604080832086905586835282209190915560018601805491925082918590811061280a57634e487b7160e01b600052603260045260246000fd5b6000918252602090912001556001850180548061283757634e487b7160e01b600052603160045260246000fd5b600190038181906000526020600020016000905590555050505050565b60006128a9826040518060400160405280602081526020017f5361666545524332303a206c6f772d6c6576656c2063616c6c206661696c6564815250856001600160a01b03166129539092919063ffffffff16565b80519091501561188957808060200190518101906128c79190612bf3565b6118895760405162461bcd60e51b81526004016101e290613108565b6000600382111561294457508060006128fd600283613258565b612908906001613240565b90505b8181101561293e579050806002816129238186613258565b61292d9190613240565b6129379190613258565b905061290b565b5061294e565b811561294e575060015b919050565b6060612962848460008561296a565b949350505050565b60608247101561298c5760405162461bcd60e51b81526004016101e290612f63565b61299585612a1f565b6129b15760405162461bcd60e51b81526004016101e290613065565b600080866001600160a01b031685876040516129cd9190612cdf565b60006040518083038185875af1925050503d8060008114612a0a576040519150601f19603f3d011682016040523d82523d6000602084013e612a0f565b606091505b509150915061209f828286612a2e565b6001600160a01b03163b151590565b60608315612a3d575081611704565b825115612a4d5782518084602001fd5b8160405162461bcd60e51b81526004016101e29190612e1d565b60405180606001604052806000815260200160008152602001600081525090565b80516dffffffffffffffffffffffffffff8116811461294e57600080fd5b600060208284031215612ab7578081fd5b813561170481613407565b600060208284031215612ad3578081fd5b815161170481613407565b600080600060608486031215612af2578182fd5b8335612afd81613407565b92506020840135612b0d81613407565b91506040840135612b1d81613407565b809150509250925092565b60008060008060808587031215612b3d578081fd5b8435612b4881613407565b93506020850135612b5881613407565b92506040850135612b6881613407565b9396929550929360600135925050565b60008060008060808587031215612b8d578384fd5b8435612b9881613407565b93506020850135612ba881613407565b93969395505050506040820135916060013590565b600080600060608486031215612bd1578283fd5b8335612bdc81613407565b9250602084013591506040840135612b1d81613407565b600060208284031215612c04578081fd5b81518015158114611704578182fd5b600080600060608486031215612c27578283fd5b612c3084612a88565b9250612c3e60208501612a88565b9150604084015163ffffffff81168114612b1d578182fd5b600060208284031215612c67578081fd5b5051919050565b60008060408385031215612c80578182fd5b505080516020909101519092909150565b600080600060608486031215612ca5578283fd5b8351925060208401519150604084015190509250925092565b600060208284031215612ccf578081fd5b815160ff81168114611704578182fd5b60008251612cf18184602087016133c5565b9190910192915050565b6001600160a01b0391909116815260200190565b6001600160a01b0392831681529116602082015260400190565b6001600160a01b039384168152919092166020820152604081019190915260600190565b6001600160a01b039788168152958716602087015260408601949094526060850192909252608084015290921660a082015260c081019190915260e00190565b6001600160a01b039889168152968816602088015260408701959095526060860193909352608085019190915260a084015290921660c082015260e08101919091526101000190565b6001600160a01b03929092168252602082015260400190565b6001600160a01b03959095168552602085019390935260408401919091526060830152608082015260a00190565b6000602082528251806020840152612e3c8160408501602087016133c5565b601f01601f19169190910160400192915050565b60208082526019908201527f414d4d5661756c743a204e6f7420617574686f72697a65642100000000000000604082015260600190565b6020808252601c908201527f5375736869737761705661756c743a2063616e27742072657061792e00000000604082015260600190565b6020808252601e908201527f414d4d5661756c743a204e6f7420617070726f766564206361706974616c0000604082015260600190565b6020808252601f908201527f5375736869737761705661756c743a204e6f204c5020746f2072656d6f766500604082015260600190565b6020808252601a908201527f4c7042756e646c65733a6164644142756e646c652d6578697374000000000000604082015260600190565b60208082526026908201527f416464726573733a20696e73756666696369656e742062616c616e636520666f60408201527f722063616c6c0000000000000000000000000000000000000000000000000000606082015260800190565b6020808252601a908201527f5375736869737761705661756c743a206e6f204c502070616972000000000000604082015260600190565b60208082526019908201527f5375736869737761705661756c743a204e6f20616d6f756e7400000000000000604082015260600190565b6020808252601b908201527f556e697377617056325574696c733a206e6f206c7020706169722e0000000000604082015260600190565b6020808252601d908201527f416464726573733a2063616c6c20746f206e6f6e2d636f6e7472616374000000604082015260600190565b6020808252601a908201527f5375736869737761705661756c743a204e6f206361706974616c000000000000604082015260600190565b6020808252818101527f4c7042756e646c65733a72656d6f76654142756e646c652d6e6f6e6578697374604082015260600190565b6020808252602a908201527f5361666545524332303a204552433230206f7065726174696f6e20646964206e60408201527f6f74207375636365656400000000000000000000000000000000000000000000606082015260800190565b6020808252601f908201527f5265656e7472616e637947756172643a207265656e7472616e742063616c6c00604082015260600190565b60208082526018908201527f5375736869737761705661756c743a204e6f2061737365740000000000000000604082015260600190565b81518152602080830151908201526040918201519181019190915260600190565b90815260200190565b9283526001600160a01b03918216602084015216604082015260600190565b918252602082015260400190565b9283526020830191909152604082015260600190565b60008219821115613253576132536133f1565b500190565b60008261327357634e487b7160e01b81526012600452602481fd5b500490565b80825b600180861161328a57506132b5565b81870482111561329c5761329c6133f1565b808616156132a957918102915b9490941c93800261327b565b94509492505050565b600061170460001960ff8516846000826132da57506001611704565b816132e757506000611704565b81600181146132fd576002811461330757613334565b6001915050611704565b60ff841115613318576133186133f1565b6001841b91508482111561332e5761332e6133f1565b50611704565b5060208310610133831016604e8410600b8410161715613367575081810a83811115613362576133626133f1565b611704565b6133748484846001613278565b808604821115613386576133866133f1565b02949350505050565b60008160001904831182151516156133a9576133a96133f1565b500290565b6000828210156133c0576133c06133f1565b500390565b60005b838110156133e05781810151838201526020016133c8565b838111156120cb5750506000910152565b634e487b7160e01b600052601160045260246000fd5b6001600160a01b038116811461039257600080fdfea164736f6c6343000801000a",
    "linkReferences": {},
    "deployedLinkReferences": {}
}